:400000000040002011000000DD010000DD01000010B502F05BFA00F003F9C04670B50D4C12232360182002F0C9F9FE2212020A4B1A600A4A0A4B1A6004220A4B1A603C32EA
:40004000094B1A600025094B1D60002002F046FA256070BD300010400003014040FF00800000014028000340140101400C02224010B572B6EE221202094B1A60D8221201D7
:40008000084B1A608422084B1A60823A074B1A602E32074B1A60FFF7C1FF00F08FF810BD0003024008030440180404400007044008070440000000000000000000000000C0
:4000C0000000000000000000000000000000000000000000000000000000000000000000000000000000000000000000000000000000000000000000000000000000000000
:4001000010B5064C2378002B07D1054B002B02D0044800E000BF0123237010BD480100200000000054340000084B10B5002B03D00749084800E000BF07480368002B00D152
:4001400010BD064B002BFBD09847F9E7000000004C01002054340000B00000200000000010B582B062B600F09FF800F0C1F800F04FFC00F009FC0028FBD100F0DDF800F0CF
:4001800059FA6B46DA1C0021002002F003F804000021002000F02CFA2200064901A802F035FD01A800F082F8034800F07FF800F02FFCDEE760340000643400001022044B2C
:4001C0001A600D3A034B1A601D32034B1A607047C002294030003040000E3F4010B502F0D7FC03680C2B00D1FEE7FEE710B50300094A1068C318094A9A1A802149008A425E
:4002000002DC054A136005E002F0C2FC0C2303600120404210BDC046B40000201802002070B50F4E0F4D13E029686B68AC68002202E001C901C30432A242FAD1E868002241
:4002400002E0002102C304328242FAD11035013E002EE9D102F0A2FCFFF782FFFEE7C04601000000DC35000010B500230AE0032B03D89A000849505800E008489900084AF8
:40028000885001332B2BF2D9FFF7F2FE80229205044B1A6010BDC04600000000DD0100000000002008ED00E07047C04670B505000078012404E002F053F9285D0134E4B28D
:4002C0000028F8D170BDC04610B5084B1B78002B06D100F019F900F0A3F90122034B1A7000F058F800F042FD10BDC0466401002070B5FFF7E9FF051E02D100F023FC0500D0
:40030000002D02D100F084FB0500002D02D00BE0013C00E0074C00F037FB002801D0002CF6D1002C00D1102500F00CFA00F050FA280070BD404B4C0070B5144E0024002583
:400340001FE01F232B4001229A4011006A091048043293001A580A40C3185B6813420ED0300000F051F804003100280000F0A2F8002C04D02100280001F0F0FE06242036AA
:400380000135002DDDD0200070BDC0467C3400008401002070B500230CE013489A1D920000211150191D8A00012149421150821851600133002BF0D00C4C012310E06668B9
:4003C000A27E094B5B1900211977012A06D12069002803D0717A228B02F00FFC20342B005D1E002BEBD170BD840100207C34000030B50B884A889C1A00250D818079844274
:4004000000DD0C8130BDC046F0B583B00600846843680093837E01930025002712E0019A2100009800F0EAF9002805D0002F03D180231B062B431F0021000098FFF7D8FF86
:400440000C340135338B9D42E9D3380003B0F0BDF0B50A8B8D684F680B69012125E00C00044003D1BE883A7AB21802E0BA883E7A921B2E89B24201D3002200E00A00A242B4
:4004800002D01E78013E1E70A24202D01C78002C07D188431043002A01D17A7A00E001221A7049000C3501336246541EA446002AD5D1F0BD70B504008A7E124B1B181D7F82
:4004C000012A04D12800FFF7C3FF050002E0002001F0F4FE0B4B1B191D7763091F2214401E3AA240002D06D1064906339B0058589043585005E0034906339B00585802438D
:400500005A5070BD8401002070B5314C84220021200002F072FB2F4B238090231B0163802D4BA3800823E38303227B33E2541D320120A054294B63840A23732163541725E0
:4005400001396554153D0231655418396252244AA26550396C22A15413310132A1549622D20060356253023D60531E4D5D30255213302154473162526A22A3545E33012208
:40058000E2540D220133E254174A053BE252174B24341A00343223CA23C4116821609288A2801A00103214331C0001230CE0A168238B04E01378CB7201320C310300581E38
:4005C000002BF7D120342B005D1E002BEFD170BD840100204C5F0000DC05000044740000D8B80500E02E0000B70A00006834000000280CD14301084AD3189B8D8B4208D9B1
:40060000064B1818037F01208840184002E0002000E000207047C04668340000840100200023024AD380024A13607047840100206C01002070B5002500263D4B1B68032B63
:4006400006D102F002F801223A4BDA8002F001F8384BDC88E4B2062C23D8A300364AD3589F460122324B1A6001261AE00022304B1A60012615E0FFF73BFE00222C4B1A603D
:40068000012501260DE00222294B1A60012608E00022274B1A60012603E00322244B1A600026002E0FD001F0D0FF224BDB88DBB29C4205D11F4AD188204B0B439BB2D3809A
:4006C00001F0C7FF00261A4B1B68012BB5D0022B2BD1184A7A33D35CDBB27D21525CD2B2002B22D1590116484118098B8A421CD21049088980B27E24095B89B2884214D038
:400700005B010F49CB189C6853009A189300E41801F09BFF074B1A8992B27E215A52228892B202315A5201F094FF280070BDC0466C01002084010020D43400000080FFFF17
:400740007C3400007047C046FF231940062902D08318002199715300195AC3185980C94399808218002393727047C04670B506000D00012305E0220029003000FFF7E4FF17
:4007800023005C1E002BF6D170BDC04610B54001054B1B184A00511888009A6894466044997EFFF7E3FF10BD7C34000070B505004301064AD3181B8B04E021002800FFF755
:4007C000E5FF23005C1E002BF7D170BD7C34000010B5012303E02000FFF7E8FF23005C1E002BF8D110BDC0469840504380235B009A1A51434018000A7047C046F0B54F4671
:4008000080B482B005000E000192002401234EE07B00F3189A885988CB439BB29A4243D17B00985B814206D8431A9946F21900239372012202E00B1A99460022002A11D1AD
:40084000EB7999450ED9F3199B7AAA7A934205D33A0001993000FFF777FF1FE0F219013393721BE0AB79994504D9EB79994515D8002A13D1FF23019A1340062B0ED0090269
:40088000F31999469B79194308230122FFF7ACFF020A7B00F3185A804B4698717B00F3185A88D2439A8001E0802424063B005F1E002BADD1200002B004BC9146F0BDC04625
:4008C00070B504000D009F2808D91B4B994205D91A49280002F020F8002921D09F2C09D9FF235B009D4205D91549280002F014F8002917D09F2C07D97E2D05D97F212800D5
:4009000002F00AF800290FD09F2C0FD93E2D0FD93F21280002F000F800290BD000200AE0042008E0032006E0022004E0002002E0002000E0012070BDFE030000FF030000C7
:40094000FF01000010B54B1EDBB2032B01D8102300E00023002911D0002B11D0642253430100180001F052FF002301E0013340000928FBD90A2804D9013B02E0002300E045
:400980000023D8B210BDC046024BDB68802018407047C0468401002010B5114BDB68DB0312D4002812D11F23034001229A40110042090B4C043293001A590A40E3185B6821
:4009C000134205D1012404E0112402E0012400E00024002C01D100F04DFD200010BDC0468401002010B5084BDB68DB0307D4074B1B78012B05D100F0A1FC002003E01120F7
:400A000001E00120404210BD840100207001002010B50C4BDB681B0612D40024012040420BE02000FFF7B8FF002805D10022064B5A70FFF7D7FF04E00134002CF1D000E05D
:400A4000112010BD8401002070010020F0B54F464646C0B483B0012809D0022803D000270623994606E005270023994602E0002700239946164C002523E001F0E6FD019099
:400A80002268136861698B43136060680268A17F884607214646B1408A434946B1400A430260227F390091400B4322681360E2681368A1698B431360019801F0CAFD2034BA
:400AC0000135002DD9D003B00CBC90469946F0BDB43400007047C046074A084B1A6001380002074B1860054B1B68002BFBDB054A024B1A607047C0464000004000000140DD
:400B00000003014040FF008010B51F23034001229A40110042090A4C043293001A590A40E3185B68134201D0002300E01123002B03D1552100F0AAFD0300180010BDC0461E
:400B40008401002070B50024002504E02000FFF7DBFF05430134002CF8D0280070BDC0464001024B18184368D88970477C3400000203121A01238B40013B9A4205D9020277
:400B8000101A834203D3052002E0062000E00020C0B2704770B50E00FFF7E2FF05007188002200F0E5FA01002800FFF789FE041E04D168007188FFF7DBFF04002100280006
:400BC000FFF7C0FE0001C0B22043307470BDC04610B500240AE06301064AD31859682000FFF7D8FF200001F0A9FA0134002CF2D010BDC0467C340000F0B55F4656464D46A1
:400C00004446F0B483B001902B4E3468F0231B011C400094294F3B68042292461A409146274C2568E0235B001D40AB4601F00DFD3368244A90461340336001F00AFD01F0EF
:400C400004FD3B68524693433B6001F002FD01F0FCFC23681C4D2B40C02252001343236001F0F7FC6B46988801F014FC01F0EDFC23681D405A461543256001F0EAFC01F0C5
:400C8000E4FC3B68524693434A4613433B6001F0E0FC01F0DAFC336842461A401400009B1C43346001F0D5FC03B03CBC90469946A246AB46F0BDC0460004024000040440D3
:400CC00008040440FFF0FFFF3FFEFFFF70B505000E00140001F0B9FC2B685C4034405C402C6001F0B6FC70BD10B5074A136801218B4313600022F02109010448FFF7E6FF97
:400D000000F0A6FB10BDC046A80229400004024010B50400144B1B78834223D0012B02D1FFF7E2FF07E0022B05D0042B03D0032B01D101F0EBF9012C05D100F049F9012295
:400D4000094B1A700EE0022C0CD0042C0AD0032C05D101F0E9F90322034B1A7002E00022014B1A7010BDC0467001002010B5FFF72FFF0020FFF76AFE00218323034AD154E0
:400D80000020FFF7C5FF002010BDC0468401002001390843014B18607047C04600022940034970230A689A43503B13430B607047C4000020034A044B1A60C5225204034B9A
:400DC0001A60704700008F01C0012940C4012940F0B5474680B482B005004301214AD3185A689C68538801279F40013F0A2902D908000A3800E000200A2398468844434603
:400E0000642B01D9642398467843642101F0FEFC060040467843642101F0F8FC020000270023019313E04B00185B864208D80B00824201D207E00123591E002BF3D104E0D8
:400E40000623019301E0062301930C3401376B010449CB181B8B9F42EDD3019802B004BC9046F0BD7C340000F8B54F464646C0B4070046688468357BA84601237F20002218
:400E8000914608E0B318DB7A994500D29946984200D9180013005A1E002BF3D100210CE0A318DB7A984200D91800130000E001235A1E002BF4D10C3401313B8B9942F6D33C
:400EC0004346002B13D0132813D80D49EA008A1850686B1EDB00CB18596801F097FC4F4647437E2F07D8013D3573012004E0002002E0002000E000200CBC90469946F8BD25
:400F0000F0340000F0B55F4656464D46E0B482B007008A4643689B465B8801229A401300013B019301234AE05B465B19DB7A9946BB686A00D05A4C46002208E05919C97A89
:400F40008C4202D96800C05A0C000C330132F97E8A42F3D364235843019901F057FC64306043514601F052FC814500D381465B465B194A46DA72BC6800261CE06B00185B3D
:400F800064235843019901F041FC64306319DB7A584353464A465343984203D263190022DA7206E0C01A3230642101F02FFC6319D8720C340136FB7E9E42DFD32B005D1E3E
:400FC000002BB1D102B01CBC91469A46A346F0BDF8B5344B83229A5C8221585C824206D0FFF734FD2F4B8222995C013299540120FFF702FEC02212032B4B1A602B4D2B6852
:401000002B4E33432B6000242A4B1C602A4B1C6010222A4B1A602A4B1C602A4B1C602A4B1C602A4B1C602A4F3C602A4B1C60C022D200F02109012848FFF748FE0022042183
:401040002648FFF743FE264A1368802149010B4313600122234B1A602B6833432B6080235B04214A13602149214A1160214A14603B60FFF79FFE20230A4AD05CFFF72CFD80
:40108000FFF78EFE1C4B1B681C4A13431C4A13600F221C4B1A601C4B1C60053A1B4B1A60F8BDC0468401002004022940A802294001000010F4002940B4022940C002294081
:4010C000200329408401294088022940800229408402294080012940000402400004044094022940A0022940A4022940410D00008801294090022940C40000200010008069
:401100000000294000032940F001294010032940F8B50700037BDB000F4A9D5801F095FA0E4B1A680E4C22400E490E78BF19F97A0A432A431A6001F08CFA01F086FA0A49FB
:401140000B682340094A12689619F27A13432B430B6001F07EFAF8BDF0340000C001294080FF3FFC28350000C40129400802002010B50300140001208840102900D11D3883
:40118000002B02D0190001F041FB053C012C00D84008002800D1013010BDC04610B50C4B1B785B010B4AD3185B68D9891B7C18045A1F012A02D8802292041043053BDBB268
:4011C000012B02D8490800D10131FFF7E1FD10BD730100207C34000010B50300C08959881A7CFFF7C5FF0004000C014B186010BD1403294010B5102001F04CF801222C4B89
:401200001A6000232B490B602B482C4908602C490B6006202B4908602B490A602B490A60832149002A4A11602A4A136003222A4B1A60782300E0013B254A1268520701D4A9
:40124000002BF8D1002B02D10822234B1A60832252001F4B1A60102001F026F8102001F00FF80023184A1360144A1360144A1360144A13605021154A11604F390D4A11602C
:401280000B4A1360154A1368802149040B4313600222104B1A60782300E0013B104A1268520701D0002BF8D10E4A0B4B1A6010BD800129408C01294001010100B002294048
:4012C000B40229408802294080022940F0012940F0002940F80029404003294000022940000029400103000010B5054AD36805490B43D3600A2001F0CDF8FFF77BFF10BD1E
:40130000840100208000010070B50400857F067F01F09BF923681B680F22B24093431A000423B3401343666832680721A9408A4332602268136001F08CF970BDF8B51C4B33
:401340001B785B011B4AD3185F681B4B83229A5C8221585C824206D0FFF778FB164B8222995C01329954154C00232370104E3378104D5B01EB1899682378DBB25A00D318A8
:401380009A008A180E4B1A603800FFF7C1FE33785B015B592078400118180A4B1860FFF7B3FF094800F04AFFFFF79EFFF8BDC046730100207C3400008401002072010020A4
:4013C000080200200C0200207D27000010B54001044BC05849014018034B1860FFF794FF10BDC0467C3400000C020020F8B50400067F857F01F029F9636819680723AB4034
:40140000994327683B680F22B24093433B6083220E4FBA5C002A05D10623AB4019436368196008E0022A06D10332B24013436268116022681360E1680B68647F0122A240FA
:4014400093430B6001F005F9F8BDC0468401002010B5064B1B78012B06D1054B1868FFF7C5FF0022014B1A7010BDC046740100200C02002070B5104E4301F3185D68C0B20F
:401480000E4C20700120FFF743FCFFF7E1FF23785B019A590A4B1A600A4BDA687F218A43DA602178DA680A43DA602800FFF794FEFFF774FE70BDC0467C340000730100202E
:4014C0000C0200208401002070B54301114AD3185D68C9B2104C217099682378DBB25A00D3189A008A180D4B1A60FFF7C3FF2800FFF70EFE20780A4B40011A6894466044B1
:401500001860FFF701FF0122064B1A70064800F095FE70BD7C34000072010020080200200C0200207401002051270000F0B5574680B484B001904301514AD3185B689A46F1
:401540001D000B35012303E0002003AB985413005A1E002BF8D153465A8801239340013B59430800642101F051F90600002300936EE0019B5B01424AD3189F68009A53004F
:40158000944663449A00BF18012304E04023AB54B918CB7213005A1E002BF7D1402400990198FFF791FF0120FFF726FBFFF79CFE344B00E0013B344AD26812060DD5002BE7
:4015C000F8D101330AE05300DB5B9E4203D9A9180B78A3430B70130000E001235A1E002BF1D1640801330FE0A9180B782343DBB20B70B818C372002C05D10B78002B02D1D5
:4016000001330B70C37213005A1E002BECD1002CC5D1013307E003AB9B181878A95C884200D2197013005A1E002BF4D100990198FFF74AFFFFF758FE124B00E0013B124A4E
:40164000D268120601D5002BF8D1009B01330093019B5B010A4AD3181B8B009A9A4288D3012305E003AB995C53469B18D97213005A1E002BF6D104B004BC9246F0BDC0467F
:401680007C340000005307008401002070B504000D004601194BF618194BDB68DB032AD4736805221A7329002000FFF73FFF3000FFF7DAFB0028F6D129003000FFF722FCA6
:4016C0002000FFF7D7FEFFF739FE0E4B00E0013B0B4AD268120601D5002BF8D1002B05D029002000FFF774FB050000E01025200000F024FD00E01125280070BD7C340000D8
:4017000084010020001BB70070B588B004000D0020221049684601F067FA002013E0050B227813096B400F252B405B006E469B5B00014340180B42402A405200905B1B0115
:40174000584001340D00691E002DE8D180B208B070BDC0462C35000010B50B4B1B78062B03D10122094B1A600CE0094B6C229A5C012090405C22995A01F048F80004000C99
:40178000024B186010BDC04676010020140329408401002083225200064B1A60064B1B689BB2064A5380064AD168064B0B40D3607047C046F0002940D00029407601002091
:4017C000840100207FFFFEFF01380005000D014B18607047000229407F231840034B1843034B18600022034B1A60704700008301C0012940C401294082B000231B4A136085
:401800001B491C4A11601C4A136006211B4A116001221B490A60802040041A4908601A490A601A4A8321490011601268184A13600322184B1A6078230193019A03E0019BCE
:40184000013B0193019A114B1B685B0701D4002AF5D1019B002B02D108220E4B1A600023044A1360044A136002B070478C01294001010100B0022940B4022940880229402C
:401880008002294084022940F0012940F0002940F80029404003294082B00190019A03E0019B013B0193019A044B1B7B5BB2002B01DA002AF4D1019B02B0704784010020B5
:4018C000C900074BCB587F2210401843F0231B031843044B18600022034B1A607047C046F0340000C0012940C401294001280ED0002804D0022804D0032804D005E00120E2
:4019000006E0042004E0002002E0002000E002207047C04610B500F098FE0D4A11680D4B0B40136000F095FE00F08FFE0A4A11680A4B0B40136000F08CFE00F086FE084A87
:40194000136804218B43136000F083FE10BDC046080404403FFEFFFFA0022940FFFFEFFF0004044010B500F070FE044A1168044B0B40136000F06DFE10BDC046000402400D
:40198000FFF0FFFF10B500F060FE054A1168054B0B40C02149000B43136000F05AFE10BD080404403FFEFFFF70B505000C0000F04CFE69680B68AD7F0722AA409343AC4084
:4019C0001C430C6000F045FE70BDC04670B50600054D002405E031002800FFF7E5FF20350134002CF7D070BDB434000070B505000C0000F02AFE2A68136869698B43297FC8
:401A00008C401C43146000F024FE70BD70B50600054D002405E031002800FFF7E7FF20350134002CF7D070BDB434000010B50400104B1B7983421BD002280AD003280FD005
:401A4000012813D10020FFF7E1FF0620FFF7BEFF0CE00020FFF7DAFF0020FFF7B7FF05E00020FFF7B3FF0420FFF7D0FF014B1C7110BDC0467601002070B54301114AD3185B
:401A80005B695B0709D540018458890061180C8864010D4BE4188E7805E04001094BC458490164180126002509E000212000FFF77BFF04212000FFF799FF20340135AE4221
:401AC000F3D870BD7C340000B4340000F0B583B043011D4AD3185B695B0709D540018458890061180C886401184BE4188E7805E04001154BC458490164180126144B1B79E5
:401B0000022B09D0042B03D000270623019306E005270023019302E000270023019300250DE000212000FFF761FF01992000FFF73BFF39002000FFF759FF20340135AE427C
:401B4000EFD803B0F0BDC0467C340000B43400007601002070B505000C0000F076FDEA681368A9698B43697F8C401C43146000F070FD70BD70B50600054D002405E03100FB
:401B80002800FFF7E7FF20350134002CF7D070BDB434000070B56823294AD55CA9003C2000F034FE041E00D101342800FEF794FF0322244B1A60244A244B1A60172000F0B0
:401BC00069FC234A234B1A60013C234B1C600023224A1360224A1360224A1360224A13600121224A11600131214A11608022520520490A60802040031F4908601F490B6006
:401C0000882040021E4908601E490B601E490B60882149041D4801601D4801601D490A60692207498A5C120241210A431A490A601A4A13601A491B4A11601B4A136070BD8F
:401C40008401002000022940001000850000294091000004C401294000032940C00129408C012940C0022940040229401003294014032940800229408402294088022940A4
:401C800094022940A0022940A4022940B0022940B4022940A802294088012940900229400100008080012940F800294010B50120FEF7A2FF00234B4A13604B4A1360102125
:401CC0004A4A11604A4A13604A4A13604A4A13604A4A13604A4A136001334A4A13600139494A1160494A136000F0AFFC484B1A688024640114431C6000F0ABFC454B1B78F7
:401D0000062B0ED000F0A1FC434A1468434B1C40C023DB001C43146000F09BFC0122404B1A60802252053F4B1A60802252043E4B1A60384B1B78032B01D0052B05D16D2232
:401D40003A498C5C24022C3A1443062B05D16B33364AD45C2402303B1C43354B1C600023244A1360334A13602A4B1B78062B04D060232E4AD05AFEF7AFFE2F4B1A6870217F
:401D80008A431A60196820220A431A601B682B4A13432B4A1360172000F07CFB1D4B1B78062B09D07323214AD25C264B1A60C0221203254B1A6005E00022224B1A60234A23
:401DC000214B1A600020FFF707FD124B1B78062B04D05C23154AD05AFFF7F6FC1C4800F02DFA10BDF4002940B4022940C002294020032940840129408802294080022940B7
:401E0000840229408001294000032940F0012940940229407601002000040240FFF0FFFFA0022940A8022940A4022940840100208801294090022940C800002000100084FF
:401E40000000294010032940040229400A000C009517000010B50400134B1B78834221D0012B02D0032B03D004E0FFF753FD01E0FFF778FD0C4B1C70032C0BD002D8012C73
:401E800005D00FE0062C08D0072C09D00AE0FFF779FD07E0FFF70AFF04E0FFF707FF01E0FFF778FE10BDC0467601002000B583B0284B832252001A601B68102000F0F4F919
:401EC000102000F0DDF90022234B1A60234B1B78032B05D10023224A13601F4A136004E000231F4A13601C4A136050221D4B1A601A4B1B78062B08D11B4A1C4B1A60002384
:401F00001B4A13601B4A136002E00122174B1A60124B1B78032B03D10022174B1A6002E00022154B1A600222144B1A6078230193019A03E0019B013B0193019A104B1B68B3
:401F40005B0701D0002AF5D10E4A0F4B1A6003B000BDC046F0002940800229407601002088022940F0012940010200008C012940B0022940B402294080012940F8002940F6
:401F800000002940010300004003294010B50020FEF732FE102000F07DF90122064B1A600C2000F049FB054B1B78062B01D0FFF723FCFFF77BFF10BD800129407601002062
:401FC000F0B54F464646C0B483B080463D4B6C229A5C01249440013C5C22985AFFF7F4FBFFF7BAFB002500270023994623E0EA00354B9B185A6A91461F6A39001000FFF79B
:402000005FFC304AD16880230B43D360FFF7BEFFE1204001FFF740FC2C4B5B88FA2080005843210000F0F2FB0600E1235B00984204D901950135032DD9D900E001954A2E02
:4020400002D8019B002B0ED0E1235B009E4202D9019B032B09D033004B3B7822FF32934205D8002504E0042502E0052500E00325FB00174AD31858684A460023002100F0DD
:4020800071FC02000B001149488880B2002100F069FC104A002300F065FC0A4F6223FA5A002300F03FFC2200002300F03BFCBA6D002300F037FC43461D7003B00CBC904646
:4020C0009946F0BD840100202C35000076010020F034000040420F00F8B505000E0017004301094AD318DC698B00E418FFF7C4FC3800FFF765FF070031002800FFF7E6FC5D
:4021000027603800F8BDC0467C34000010B50020FFF7A0FE0020FFF789FC0022014B1A7110BDC0467601002010B50022024B1A710020FFF71FFD10BD7601002010B50028BC
:4021400008D14001044B18184468A01C1021FFF7DBFA208010BDC0467C34000030B543091F2404400122A240094C04339B00E3185D6895435D60636CDA0607D42200102426
:40218000234353645123D0540133D15430BDC0468401002070B506000C0015004301114AD3181B8B002816D18B4217D90320FEF7AFFD0320FFF74EFE6E230B4AD05CFFF700
:4021C00095FB0A4B1871FFF731FC2A0021003000FFF782FF04E08020C00501E08020C00570BDC0467C34000084010020760100208023014AD05070470000002010B5040000
:4022000000F023FA044A1368C0218B43A4011C43146000F01EFA10BD10E400E080225202014B1A607047C04600E100E080225202014B1A607047C04680E100E010B504003B
:40224000FFF7F4FF2000FFF7D3FF0320FFF7D6FFFFF7E4FF10BDC046024A1168024B0B401360704700002240FFFFFFBF034B18688023DB05184000D001207047000022409B
:402280001F2318401E3B8340014A13607047C04600E100E01F2318401E3B8340014A13607047C04680E100E01F2318401E3B8340014A13607047C04680E200E001BE7047D1
:4022C00010B5040006E0084B586800F0B5F9074B9C46644480231B029C42F4D8024B9868604300F0A9F910BDCC0000200080FFFF30B583B000F0E0F8002849D000F0A5F9D0
:402300000400244B196889001C2319401831224B1B689B0803221340D940204B1A68204B1340204A4A438020C00184466244D20B013A5205520D1343A02252031A43100000
:40234000192902D8184A13430CE0184BCB181B781A39174A525C9A18FF2A00D9FF229205030013430D4A1360124D2B680193302000F022FA104A13688021C9050B431360EC
:402380001420FFF79DFF019B2B60200000F061F903B030BD080F0340280003400800224000F800C040420F000000D43F4DF3FF0F6C3500003000104000002240F0B583B0F2
:4023C000040018280BD01C2809D0202807D0242805D0282803D02C2801D0302849D100F034F90190FFF742FF002803D0FFF734FF012600E00026214A136807218B43136022
:402400001F4BE3181B78DBB21E4A13601E4A13688B4313601D4803687F22934319001C4BE3181B7813400B430360322000F004F9182C16D9114F3B680725AB431A002300F3
:402440001C3B9B082B4013433B60322000F0F4F83A68AA432300183B9B082C001C4014433C60012E01D1FFF743FF019800F0F1F802E00020FFF722FF03B0F0BD080F034037
:402480004DF3FF0F0C0F0340100F0340180F034034F3FF0F10B5034B1B7B584300F0CCF810BDC046CC000020024B1868800F80077047C0460C022240034B1B68002B01DAD1
:4024C000012000E00020704700002240014A024B1A6070476588EDAC3800034010B50400FFF7E2FFA0421AD0144A136803218B431360134B1B689B0F01D17C2001E08620AE
:402500004000FFF7C7FF00F0A0F80D4A13689B009B08A40FA4071C43146000F09AF8074B1B6803229343064A1268920F01D1023200E001221343014A136010BD14022240B7
:402540000C02224000000000000000000000000000000000000000000000000000000000FEB5494652465B460EB407462E4909688A462E4A12682E48022100F047F90300EB
:402580002A480068C0182A4900F040F906001F3EB346234A126801219140C9430C000125002600F052F8814651460B6823400B605846043000F040F83800F04028409040C0
:4025C0000B68234003430B60584600F035F80136072EF1D900200130012090400B68234003430B605846063000F026F8484600F030F8C046C046C0460EBC894692469B46AE
:40260000FEBDC046C046C046C046C046C046C046C046C046C046C046C046C046C046C046C0000020BC000020B8000020DC00002000C20100000000000230800803D0013074
:402640000238FCD1C046C0467047EFF3108072B6704780F3108870470E4B1B785B010E4AD3185B680D4A11680A04120C588801238340013B9A4206D2094B1A68094B1B78BF
:402680005B00D15205E0064A1168064A127852008B527047730100207C340000D0002940080200202835000070B5224B1A78224952018A1850681B785B01CB181A7E013A49
:4026C0001E4B1B78DBB29A421CD91C4C23780133DBB22370174D2B785B01CB1899682378DBB25A00D3189A008A18154B1A60FEF70FFD2878C0B22178C9B2FEF767FEFEF7E9
:4027000079FD16E000220D4B1A700E4AD1680E4B0B40D3600D4B1B78012B02D1FEF7DAF907E0084BDA6880218A43DA601A8901321A8170BD730100207C3400007201002076
:402740000802002084010020FFFFFEFF7101002010B583225200064B1A60FFF77DFF054B1A8901321A81D968034A0A40DA6010BDF0002940840100207FFFFEFF10B50A4BD1
:402780001B785B01094A9B58094A147864011C1983225200074B1A60FFF75EFF2000FEF725FEFFF781FF10BD730100207C34000072010020F000294070B50400FFF745FF47
:4027C0000500102C05D8104A136803218B43136016E0202C07D80C490B6803229343023A13430B600CE0302C07D807490B6803229343013A13430B6002E00020FFF75EFD6C
:402800002800FFF726FF70BD30001040002243088B4274D303098B425FD3030A8B4244D3030B8B4228D3030C8B420DD3FF22090212BA030C8B4202D31212090265D0030B7E
:402840008B4219D300E0090AC30B8B4201D3CB03C01A5241830B8B4201D38B03C01A5241430B8B4201D34B03C01A5241030B8B4201D30B03C01A5241C30A8B4201D3CB02C9
:40288000C01A5241830A8B4201D38B02C01A5241430A8B4201D34B02C01A5241030A8B4201D30B02C01A5241CDD2C3098B4201D3CB01C01A524183098B4201D38B01C01ADB
:4028C000524143098B4201D34B01C01A524103098B4201D30B01C01A5241C3088B4201D3CB00C01A524183088B4201D38B00C01A524143088B4201D34B00C01A5241411AB2
:4029000000D20146524110467047FFE701B5002000F006F802BDC0460029F7D076E770477047C046002B11D1002A0FD1002900D1002802D00021C943081C07B4024802A1AA
:402940004018029003BDC046D9FFFFFF03B4684601B5029800F032F8019B9E4602B00CBC7047C046F0B54F464646C0B41604360C9946330005042C0C070C150C63437E43C7
:402980006F4365431C0CAD1964199C46A64203D980235B02984647446346250CEF191D044B464A4343432D0C240464199918C91920000CBC90469946F0BDC046F0B54D46A3
:4029C000564644465F46F0B4924683B004000D0099468B422FD82CD04946504600F0AEF829000600200000F0A9F8331A9846203B9B4600D574E053465A4693401F005346AE
:402A0000424693401E00AF4229D826D05B46A41BBD41002B00DA79E0002200230092019301235A4693400193012342469340009319E08242D0D900220023009201930C9B59
:402A4000002B01D01C605D600098019903B03CBC90469946A246AB46F0BDA342D6D900220023009201934346002BE8D0FB0772081A4346467B080EE0AB4201D1A2420CD841
:402A8000A41A9D41012024196D410021013E24184D41002E06D0AB42EED9013E24196D41002EF8D15B460098019900196941002B22DB2B005A46D3402A004446E2401C00DD
:402AC0005B461500002B2CDB26009E40330026004746BE403200801A994100900191AEE7424620239B1A5246DA40414613004A468A4017001F4382E7424620239B1A2A00F7
:402B000046469A402300F3401343D5E74246202300219B1A0022009101920122DA40019282E74246202326009B1ADE402F00B446974066463B003343C9E7C04610B50029E2
:402B400003D100F007F8203002E0081C00F002F810BDC0461C2101231B04984201D3000C10391B0A984201D3000A08391B09984201D30009043902A2105C40187047C046A1
:402B800004030202010101010000000000000000014B18687047C046400100200E4B70B500251E000D4CE41AA410A54204D0AB00F35898470135F8E700F0FEFC084B002549
:402BC0001E00084CE41AA410A54204D0AB00F35898470135F8E770BDC4350000C4350000C4350000CC350000002310B59A4203D0CC5CC4540133F9E710BD030082189342C9
:402C000002D019700133FAE7704700000EB410B59DB002A9029008610B48822488604861012040421FABC881084804CBA400006801938C8100F06EF80023029A13701DB082
:402C400010BC08BC03B01847FFFFFF7F40010020F0B58E6885B007000C00039201939E4243D890238A89DB001A423ED003250969236801985B1A029363695D43EB0F5D191F
:402C8000029B6D1001331B18AB4200D91D00530510D52900380000F037FB061E14D0029A2169FFF7A1FFA289194B134080221343A38112E02A00380000F086FB061E0CD168
:402CC0002169380000F0D4FA0C23402201203B60A38940421343A38117E0029B2661F61826606561019EED1AA560019BB34200D21E0032000399206800F0A5FA0020A3682E
:402D00009B1BA36023689E19266005B0F0BDC0467FFBFFFFF0B59FB0029005938B890F0016001B0610D50B69002B0DD1402100F0EBFA38603861002804D10C23029A0138F0
:402D40001360D8E040237B61002306AD6B6120336B761033AB7634002378002B03D1A31B049312D003E0252BF9D00134F4E7A31B320039000298FFF76BFF431C00D1B4E0B7
:402D80006A69049B944663446B612378002B00D1ABE00122002352426A6002A95432521801342B60EB60AB601370AB65534E21780522300000F03CFA002807D00123801BD5
:402DC00083402A68013413432B60EFE72B68DA0604D55322202102A8121811701A0704D553222B2102A81218117022782A2A03D0099B00200A210EE0059A111D12680591B0
:402E0000002A01DB099204E05242EA60022213432B6001340BE02278303A092A04D84B4301349B180120F6E7002800D0099323782E2B1ED163782A2B0AD1059B02341A1DF4
:402E40001B680592002B01DA01235B42079310E000230A201A0001346B6021783039092904D84243013452180123F6E7002B00D00792234E21780322300000F0D9F900286E
:402E800006D04023801B83402A68013413432B60217806221B48661C297600F0C9F9002812D0194B002B06D10722059B073393430833059314E005AB00933A00134B2900C8
:402EC000029800E000BF07E005AB00933A000F4B2900029800F08AF80390039B013304D06B69039A9B186B6135E7BB890B985B0601D5012040421FB0F0BDC0468535000064
:402F00008B3500008F35000000000000512C0000F7B5170001938A680B6900900C00934200DA130022003B6043321278002A01D001333B6023689B0602D53B6802333B6079
:402F4000062523681D401ED0230043331B785A1E9341226892061CD53020E1184331087021005A1C45310978A2184332023311700FE022000123193201990098089EB047CE
:402F8000431C0ED00135E3683A689B1A9D42F0DBDAE72200019943320098089DA847431C02D10120404220E006232068E1683A6803400025042B03D18D1AEB43DB171D4034
:402FC000A3682269934201DD9B1AED180027BD420AD0220001231A3201990098089EB047431CDED00137F2E70020FEBDF0B58BB006920A0043320793059004920A7E0C0024
:40300000109B6E2A00D1ABE011D8632A22D009D8002A00D1B5E0582A00D0C5E045310A70814A4FE0642A1DD0692A1BD0BCE0732A00D1AAE009D86F2A29D0702A00D0B3E03A
:40304000202209680A43226037E0752A1FD0782A33D0A9E00E001A684236111D196013683370A4E021681A68080606D4490604D5111D19600023D55E02E0111D196015688C
:40308000002D3BDA2D23049A6D42137036E021681A68080606D4490604D51568111D1960ADB202E0111D196015685F4B227E039308276F2A1DD00A271BE022007821453201
:4030C00011705A4A19680392081D226818600D68100602D4500600D5ADB2D30702D520231A4322601027002D03D1202322689A4322602300002243331A7002E00A274A4B5F
:4031000003936368A360002B09DB0422216891432160002D05D1049E002B11D07BE0002D79D0049E28003900FFF7F6FB039B013E5B5C280033703900FFF768FB051EF1D1D6
:40314000082F09D12368DB0706D563682269934202DC3023013E3370049B9B1B23612BE009681A68080607D4490605D5111D19601368A28A1A8004E0111D19601368626916
:403180001A600023049E236116E01A68111D1960166800216268300000F04AF8002801D0801B6060636803E0260042363270012323610023049A1370079B09AA009321002B
:4031C000069B0598FFF7A4FE431C02D10120404227E02369320006990598079DA847431CF4D0236800259B070FD4099BE068984217DA180015E022000123193206990598A7
:40320000079EB047431CE1D00135E368099A9B1A9D42F0DBE9E72600039B42361B7833708EE70BB0F0BDC04696350000A7350000C9B28218904204D003788B4202D001308D
:40324000F8E70020704710B5884202D98B18984201D3002305E09B1A013A08D3995C8154FAE7934203D0CC5CC4540133F9E710BD70B50500002944D00C1F2368002B00DA74
:40328000E418280000F0D8F81E4A13681100002B02D16360146031E0A3420DD92268A018834203D118685B688218226063600C6024E0A24203D813005A68002AF9D11E68AA
:4032C0009819A0420BD12168711858181960824214D110685268411819605A600EE0A04202D90C232B6009E021686018824203D1106852684118216062605C60280000F074
:403300009CF870BD80010020032370B5CD1C9D43083506000C2D01D20C2501E0002D01DBA94202D90C23336048E0300000F084F8234B1C681A002100002913D00B685B1B3F
:403340000DD40B2B02D90B60CC181EE08C4202D1636813601AE04B6863600C0016E00C004968E9E7174C2368002B03D1300000F051F820602900300000F04CF8431C18D086
:403380000323C41C9C43A0420DD12560300000F054F8200007220B30231D9043C31A0ED05A42E2500BE0211A300000F033F8431CEBD10C233000336000F03FF8002070BD65
:4033C000800100207C010020F8B506000C001500002904D11100FFF797FF040018E0002A03D1FFF745FF2C0012E000F027F885420ED929003000FFF787FF071E07D021001F
:403400002A00FFF7F1FB21003000FFF731FF3C002000F8BD002370B5064C050008002360FCF7E4FE431C03D12368002B00D02B6070BDC04610020020704770470B1F1A6836
:40344000101F002A04DA891804390B68D0180438704700000000000064F5FF7F01000000256C75002C00000000090B020F06040D070E0C050801030A20000000B43400005F
:40348000A8010020BA01002000000000680100200128000001000101FC01002000621000640028280A031E2005000400000000000000000000040240080404401804044026
:4034C0000004044004040440000000F0800000001C071500A2060000620600006C0600007606000086060000900600009A060000000000017C92000000000003F8240100A1
:4035000000004001E093040000004003C02709000000C001804F120000008001009F240000008003003E49000000000000009AACAEF53459C6475CEB68B2F21E8C8F162368
:40354000227AB8D64AC8D064E43D7E910200000014000000020000005000000005000000280000000600000050000000EEDBC9B9AA9B8E82766B60564D443B332C241D1706
:40358000100A044300232D302B2000686C4C006566674546470030313233343536373839414243444546003031323334353637383961626364656600F8B5C046F8BC08BC8C
:4035C0009E4670472901000069020000F8B5C046F8BC08BC9E46704701010000F0350000B000002098000000D00000000000000000000000180200200007044007000000EA
:403600000100000020000004020000000100000000007017E02E00000C000000001BB7000000000000000000000000000000000000000000000000000000000000000000EF
:403640008335000000000000000000000000000000000000000000000000000000000000000000000000000000000000000000000000000000000000000000000000000092
:40368000E00000200000000000000000000000000000000000000000000000000000000000000000000000000000000000000000000000000000000000000000000000000A
:4036C00000000000000000000000000000000000000000000000000000000000000000000000000000000000000000000000000000000000000000000000000000000000CA
:403700000000000000000000000000000000000000000000000000000000000000000000000000000000000000000000000000000000000000000000000000000000000089
:403740000000000000000000000000000000000000000000000000000000000000000000000000000000000000000000000000000000000000000000000000000000000049
:403780000000000000000000000000000000000000000000000000000000000000000000000000000000000000000000000000000000000000000000000000000000000009
:020000040001F9
:0200000490303A
:02000000520F9D
:0200000490402A
:4000000000000000000000000000000000000000000000000000000000000000000000000000000000000000000000000000000000000000000000000000000000000000C0
:0200000490501A
:0C0000000002257C11B50001258D63C4B1
:0200000490600A
:0100000001FE
:00000001FF